{
  "contractName": "CubikCrowdsale",
  "abi": [
    {
      "constant": false,
      "inputs": [
        {
          "name": "token",
          "type": "address"
        }
      ],
      "name": "reclaimToken",
      "outputs": [],
      "payable": false,
      "stateMutability": "nonpayable",
      "type": "function",
      "signature": "0x17ffc320"
    },
    {
      "constant": true,
      "inputs": [],
      "name": "rate",
      "outputs": [
        {
          "name": "",
          "type": "uint256"
        }
      ],
      "payable": false,
      "stateMutability": "view",
      "type": "function",
      "signature": "0x2c4e722e"
    },
    {
      "constant": true,
      "inputs": [],
      "name": "cap",
      "outputs": [
        {
          "name": "",
          "type": "uint256"
        }
      ],
      "payable": false,
      "stateMutability": "view",
      "type": "function",
      "signature": "0x355274ea"
    },
    {
      "constant": true,
      "inputs": [],
      "name": "weiRaised",
      "outputs": [
        {
          "name": "",
          "type": "uint256"
        }
      ],
      "payable": false,
      "stateMutability": "view",
      "type": "function",
      "signature": "0x4042b66f"
    },
    {
      "constant": true,
      "inputs": [],
      "name": "capReached",
      "outputs": [
        {
          "name": "",
          "type": "bool"
        }
      ],
      "payable": false,
      "stateMutability": "view",
      "type": "function",
      "signature": "0x4f935945"
    },
    {
      "constant": true,
      "inputs": [],
      "name": "wallet",
      "outputs": [
        {
          "name": "",
          "type": "address"
        }
      ],
      "payable": false,
      "stateMutability": "view",
      "type": "function",
      "signature": "0x521eb273"
    },
    {
      "constant": false,
      "inputs": [],
      "name": "renounceOwnership",
      "outputs": [],
      "payable": false,
      "stateMutability": "nonpayable",
      "type": "function",
      "signature": "0x715018a6"
    },
    {
      "constant": true,
      "inputs": [],
      "name": "owner",
      "outputs": [
        {
          "name": "",
          "type": "address"
        }
      ],
      "payable": false,
      "stateMutability": "view",
      "type": "function",
      "signature": "0x8da5cb5b"
    },
    {
      "constant": true,
      "inputs": [],
      "name": "remainingTokens",
      "outputs": [
        {
          "name": "",
          "type": "uint256"
        }
      ],
      "payable": false,
      "stateMutability": "view",
      "type": "function",
      "signature": "0xbf583903"
    },
    {
      "constant": true,
      "inputs": [],
      "name": "tokenWallet",
      "outputs": [
        {
          "name": "",
          "type": "address"
        }
      ],
      "payable": false,
      "stateMutability": "view",
      "type": "function",
      "signature": "0xbff99c6c"
    },
    {
      "constant": false,
      "inputs": [
        {
          "name": "from_",
          "type": "address"
        },
        {
          "name": "value_",
          "type": "uint256"
        },
        {
          "name": "data_",
          "type": "bytes"
        }
      ],
      "name": "tokenFallback",
      "outputs": [],
      "payable": false,
      "stateMutability": "nonpayable",
      "type": "function",
      "signature": "0xc0ee0b8a"
    },
    {
      "constant": false,
      "inputs": [
        {
          "name": "_beneficiary",
          "type": "address"
        }
      ],
      "name": "buyTokens",
      "outputs": [],
      "payable": true,
      "stateMutability": "payable",
      "type": "function",
      "signature": "0xec8ac4d8"
    },
    {
      "constant": false,
      "inputs": [
        {
          "name": "_newOwner",
          "type": "address"
        }
      ],
      "name": "transferOwnership",
      "outputs": [],
      "payable": false,
      "stateMutability": "nonpayable",
      "type": "function",
      "signature": "0xf2fde38b"
    },
    {
      "constant": true,
      "inputs": [],
      "name": "token",
      "outputs": [
        {
          "name": "",
          "type": "address"
        }
      ],
      "payable": false,
      "stateMutability": "view",
      "type": "function",
      "signature": "0xfc0c546a"
    },
    {
      "inputs": [
        {
          "name": "_rate",
          "type": "uint256"
        },
        {
          "name": "_wallet",
          "type": "address"
        },
        {
          "name": "_token",
          "type": "address"
        },
        {
          "name": "_cap",
          "type": "uint256"
        }
      ],
      "payable": false,
      "stateMutability": "nonpayable",
      "type": "constructor",
      "signature": "constructor"
    },
    {
      "payable": true,
      "stateMutability": "payable",
      "type": "fallback"
    },
    {
      "anonymous": false,
      "inputs": [
        {
          "indexed": false,
          "name": "amount",
          "type": "uint256"
        }
      ],
      "name": "RateChange",
      "type": "event",
      "signature": "0x0b6eb270e68ec2b65cffce354325dcd6cb2449e0e8fec1184cd58da0c7b0344b"
    },
    {
      "anonymous": false,
      "inputs": [
        {
          "indexed": true,
          "name": "previousOwner",
          "type": "address"
        }
      ],
      "name": "OwnershipRenounced",
      "type": "event",
      "signature": "0xf8df31144d9c2f0f6b59d69b8b98abd5459d07f2742c4df920b25aae33c64820"
    },
    {
      "anonymous": false,
      "inputs": [
        {
          "indexed": true,
          "name": "previousOwner",
          "type": "address"
        },
        {
          "indexed": true,
          "name": "newOwner",
          "type": "address"
        }
      ],
      "name": "OwnershipTransferred",
      "type": "event",
      "signature": "0x8be0079c531659141344cd1fd0a4f28419497f9722a3daafe3b4186f6b6457e0"
    },
    {
      "anonymous": false,
      "inputs": [
        {
          "indexed": true,
          "name": "purchaser",
          "type": "address"
        },
        {
          "indexed": true,
          "name": "beneficiary",
          "type": "address"
        },
        {
          "indexed": false,
          "name": "value",
          "type": "uint256"
        },
        {
          "indexed": false,
          "name": "amount",
          "type": "uint256"
        }
      ],
      "name": "TokenPurchase",
      "type": "event",
      "signature": "0x623b3804fa71d67900d064613da8f94b9617215ee90799290593e1745087ad18"
    },
    {
      "constant": false,
      "inputs": [
        {
          "name": "_rate",
          "type": "uint256"
        }
      ],
      "name": "setRate",
      "outputs": [],
      "payable": false,
      "stateMutability": "nonpayable",
      "type": "function",
      "signature": "0x34fcf437"
    }
  ],
  "bytecode": "0x608060405234801561001057600080fd5b5060405160808061126683398101806040528101908080519060200190929190805190602001909291908051906020019092919080519060200190929190505050828185858560008311151561006557600080fd5b600073ffffffffffffffffffffffffffffffffffffffff168273ffffffffffffffffffffffffffffffffffffffff16141515156100a157600080fd5b600073ffffffffffffffffffffffffffffffffffffffff168173ffffffffffffffffffffffffffffffffffffffff16141515156100dd57600080fd5b8260028190555081600160006101000a81548173ffffffffffffffffffffffffffffffffffffffff021916908373ffffffffffffffffffffffffffffffffffffffff160217905550806000806101000a81548173ffffffffffffffffffffffffffffffffffffffff021916908373ffffffffffffffffffffffffffffffffffffffff16021790555050505060008111151561017757600080fd5b8060048190555050600073ffffffffffffffffffffffffffffffffffffffff168173ffffffffffffffffffffffffffffffffffffffff16141515156101bb57600080fd5b80600560006101000a81548173ffffffffffffffffffffffffffffffffffffffff021916908373ffffffffffffffffffffffffffffffffffffffff1602179055505033600660006101000a81548173ffffffffffffffffffffffffffffffffffffffff021916908373ffffffffffffffffffffffffffffffffffffffff16021790555050505050611015806102516000396000f3006080604052600436106100db576000357c0100000000000000000000000000000000000000000000000000000000900463ffffffff16806317ffc320146100e65780632c4e722e1461012957806334fcf43714610154578063355274ea146101815780634042b66f146101ac5780634f935945146101d7578063521eb27314610206578063715018a61461025d5780638da5cb5b14610274578063bf583903146102cb578063bff99c6c146102f6578063c0ee0b8a1461034d578063ec8ac4d8146103b2578063f2fde38b146103e8578063fc0c546a1461042b575b6100e433610482565b005b3480156100f257600080fd5b50610127600480360381019080803573ffffffffffffffffffffffffffffffffffffffff169060200190929190505050610550565b005b34801561013557600080fd5b5061013e6106d7565b6040518082815260200191505060405180910390f35b34801561016057600080fd5b5061017f600480360381019080803590602001909291905050506106dd565b005b34801561018d57600080fd5b5061019661077a565b6040518082815260200191505060405180910390f35b3480156101b857600080fd5b506101c1610780565b6040518082815260200191505060405180910390f35b3480156101e357600080fd5b506101ec610786565b604051808215151515815260200191505060405180910390f35b34801561021257600080fd5b5061021b610795565b604051808273ffffffffffffffffffffffffffffffffffffffff1673ffffffffffffffffffffffffffffffffffffffff16815260200191505060405180910390f35b34801561026957600080fd5b506102726107bb565b005b34801561028057600080fd5b506102896108c0565b604051808273ffffffffffffffffffffffffffffffffffffffff1673ffffffffffffffffffffffffffffffffffffffff16815260200191505060405180910390f35b3480156102d757600080fd5b506102e06108e6565b6040518082815260200191505060405180910390f35b34801561030257600080fd5b5061030b610a3a565b604051808273ffffffffffffffffffffffffffffffffffffffff1673ffffffffffffffffffffffffffffffffffffffff16815260200191505060405180910390f35b34801561035957600080fd5b506103b0600480360381019080803573ffffffffffffffffffffffffffffffffffffffff16906020019092919080359060200190929190803590602001908201803590602001919091929391929390505050610a60565b005b6103e6600480360381019080803573ffffffffffffffffffffffffffffffffffffffff169060200190929190505050610482565b005b3480156103f457600080fd5b50610429600480360381019080803573ffffffffffffffffffffffffffffffffffffffff169060200190929190505050610a65565b005b34801561043757600080fd5b50610440610acd565b604051808273ffffffffffffffffffffffffffffffffffffffff1673ffffffffffffffffffffffffffffffffffffffff16815260200191505060405180910390f35b6000803491506104928383610af2565b61049b82610b25565b90506104b282600354610b4390919063ffffffff16565b6003819055506104c28382610b5f565b8273ffffffffffffffffffffffffffffffffffffffff163373ffffffffffffffffffffffffffffffffffffffff167f623b3804fa71d67900d064613da8f94b9617215ee90799290593e1745087ad188484604051808381526020018281526020019250505060405180910390a36105398383610b6d565b610541610b71565b61054b8383610bdc565b505050565b6000600660009054906101000a900473ffffffffffffffffffffffffffffffffffffffff1673ffffffffffffffffffffffffffffffffffffffff163373ffffffffffffffffffffffffffffffffffffffff161415156105ae57600080fd5b8173ffffffffffffffffffffffffffffffffffffffff166370a08231306040518263ffffffff167c0100000000000000000000000000000000000000000000000000000000028152600401808273ffffffffffffffffffffffffffffffffffffffff1673ffffffffffffffffffffffffffffffffffffffff168152602001915050602060405180830381600087803b15801561064957600080fd5b505af115801561065d573d6000803e3d6000fd5b505050506040513d602081101561067357600080fd5b810190808051906020019092919050505090506106d3600660009054906101000a900473ffffffffffffffffffffffffffffffffffffffff16828473ffffffffffffffffffffffffffffffffffffffff16610be09092919063ffffffff16565b5050565b60025481565b600660009054906101000a900473ffffffffffffffffffffffffffffffffffffffff1673ffffffffffffffffffffffffffffffffffffffff163373ffffffffffffffffffffffffffffffffffffffff1614151561073957600080fd5b806002819055507f0b6eb270e68ec2b65cffce354325dcd6cb2449e0e8fec1184cd58da0c7b0344b816040518082815260200191505060405180910390a150565b60045481565b60035481565b60006004546003541015905090565b600160009054906101000a900473ffffffffffffffffffffffffffffffffffffffff1681565b600660009054906101000a900473ffffffffffffffffffffffffffffffffffffffff1673ffffffffffffffffffffffffffffffffffffffff163373ffffffffffffffffffffffffffffffffffffffff1614151561081757600080fd5b600660009054906101000a900473ffffffffffffffffffffffffffffffffffffffff1673ffffffffffffffffffffffffffffffffffffffff167ff8df31144d9c2f0f6b59d69b8b98abd5459d07f2742c4df920b25aae33c6482060405160405180910390a26000600660006101000a81548173ffffffffffffffffffffffffffffffffffffffff021916908373ffffffffffffffffffffffffffffffffffffffff160217905550565b600660009054906101000a900473ffffffffffffffffffffffffffffffffffffffff1681565b60008060009054906101000a900473ffffffffffffffffffffffffffffffffffffffff1673ffffffffffffffffffffffffffffffffffffffff1663dd62ed3e600560009054906101000a900473ffffffffffffffffffffffffffffffffffffffff16306040518363ffffffff167c0100000000000000000000000000000000000000000000000000000000028152600401808373ffffffffffffffffffffffffffffffffffffffff1673ffffffffffffffffffffffffffffffffffffffff1681526020018273ffffffffffffffffffffffffffffffffffffffff1673ffffffffffffffffffffffffffffffffffffffff16815260200192505050602060405180830381600087803b1580156109fa57600080fd5b505af1158015610a0e573d6000803e3d6000fd5b505050506040513d6020811015610a2457600080fd5b8101908080519060200190929190505050905090565b600560009054906101000a900473ffffffffffffffffffffffffffffffffffffffff1681565b600080fd5b600660009054906101000a900473ffffffffffffffffffffffffffffffffffffffff1673ffffffffffffffffffffffffffffffffffffffff163373ffffffffffffffffffffffffffffffffffffffff16141515610ac157600080fd5b610aca81610cce565b50565b6000809054906101000a900473ffffffffffffffffffffffffffffffffffffffff1681565b610afc8282610dca565b600454610b1482600354610b4390919063ffffffff16565b11151515610b2157600080fd5b5050565b6000610b3c60025483610e1a90919063ffffffff16565b9050919050565b60008183019050828110151515610b5657fe5b80905092915050565b610b698282610e52565b5050565b5050565b600160009054906101000a900473ffffffffffffffffffffffffffffffffffffffff1673ffffffffffffffffffffffffffffffffffffffff166108fc349081150290604051600060405180830381858888f19350505050158015610bd9573d6000803e3d6000fd5b50565b5050565b8273ffffffffffffffffffffffffffffffffffffffff1663a9059cbb83836040518363ffffffff167c0100000000000000000000000000000000000000000000000000000000028152600401808373ffffffffffffffffffffffffffffffffffffffff1673ffffffffffffffffffffffffffffffffffffffff16815260200182815260200192505050602060405180830381600087803b158015610c8357600080fd5b505af1158015610c97573d6000803e3d6000fd5b505050506040513d6020811015610cad57600080fd5b81019080805190602001909291905050501515610cc957600080fd5b505050565b600073ffffffffffffffffffffffffffffffffffffffff168173ffffffffffffffffffffffffffffffffffffffff1614151515610d0a57600080fd5b8073ffffffffffffffffffffffffffffffffffffffff16600660009054906101000a900473ffffffffffffffffffffffffffffffffffffffff1673ffffffffffffffffffffffffffffffffffffffff167f8be0079c531659141344cd1fd0a4f28419497f9722a3daafe3b4186f6b6457e060405160405180910390a380600660006101000a81548173ffffffffffffffffffffffffffffffffffffffff021916908373ffffffffffffffffffffffffffffffffffffffff16021790555050565b600073ffffffffffffffffffffffffffffffffffffffff168273ffffffffffffffffffffffffffffffffffffffff1614151515610e0657600080fd5b60008114151515610e1657600080fd5b5050565b600080831415610e2d5760009050610e4c565b8183029050818382811515610e3e57fe5b04141515610e4857fe5b8090505b92915050565b610ec2600560009054906101000a900473ffffffffffffffffffffffffffffffffffffffff1683836000809054906101000a900473ffffffffffffffffffffffffffffffffffffffff1673ffffffffffffffffffffffffffffffffffffffff16610ec6909392919063ffffffff16565b5050565b8373ffffffffffffffffffffffffffffffffffffffff166323b872dd8484846040518463ffffffff167c0100000000000000000000000000000000000000000000000000000000028152600401808473ffffffffffffffffffffffffffffffffffffffff1673ffffffffffffffffffffffffffffffffffffffff1681526020018373ffffffffffffffffffffffffffffffffffffffff1673ffffffffffffffffffffffffffffffffffffffff1681526020018281526020019350505050602060405180830381600087803b158015610f9d57600080fd5b505af1158015610fb1573d6000803e3d6000fd5b505050506040513d6020811015610fc757600080fd5b81019080805190602001909291905050501515610fe357600080fd5b505050505600a165627a7a723058201627537be6fd1d5d75e0a3b15da6622320aedbbfd893adf210c1b7784552f0f10029",
  "source": "pragma solidity ^0.4.24;\n\nimport 'openzeppelin-solidity/contracts/crowdsale/emission/AllowanceCrowdsale.sol';\nimport 'openzeppelin-solidity/contracts/crowdsale/validation/CappedCrowdsale.sol';\nimport \"openzeppelin-solidity/contracts/ownership/HasNoTokens.sol\";\n\n/**\n* @title Cubik crowdsale contract\n* @author Richard Fu (richardf@block42.world)\n* @dev Complant with OpenZeppelin's imlementation of the crowdsale spec.\n*/\ncontract CubikCrowdsale is CappedCrowdsale, AllowanceCrowdsale, HasNoTokens {\n\n  event RateChange(uint256 amount);\n\n  /** \n   * @dev The Cubik crowdsale constructor sets rate, CUBIK owner wallet, CUBIK contract and cap.\n   * @param _rate Coverting rate, x CUBIK per ETH\n   * @param _wallet CUBIK owner wallet address\n   * @param _token CUBIK contract address\n   * @param _cap Max amount of wei to be contributed\n   */\n  constructor(uint256 _rate, address _wallet, ERC20 _token, uint256 _cap) public Crowdsale(_rate, _wallet, _token) CappedCrowdsale(_cap) AllowanceCrowdsale(_wallet) {\n  }\n  \n  /** \n   * @dev Set the converting rate of the crowdsale, owner only\n   * @param _rate Coverting rate, ? CUBIK per ETH\n   */\n  function setRate(uint256 _rate) external onlyOwner {\n    rate = _rate;\n    emit RateChange(_rate);\n  }\n\t\n}",
  "sourcePath": "/Users/fur/Projects/Block42/cubik-contracts/contracts/CubikCrowdsale.sol",
  "compiler": {
    "name": "solc",
    "version": "0.4.24+commit.e67f0147.Emscripten.clang"
  },
  "schemaVersion": "2.0.1",
  "updatedAt": "2018-08-28T07:09:00.248Z"
}